{
  "contractName": "Sellable",
  "abi": [
    {
      "constant": false,
      "inputs": [
        {
          "name": "_price",
          "type": "uint256"
        },
        {
          "name": "_to",
          "type": "address"
        }
      ],
      "name": "initiateSale",
      "outputs": [],
      "payable": false,
      "stateMutability": "nonpayable",
      "type": "function"
    },
    {
      "constant": true,
      "inputs": [],
      "name": "askingPrice",
      "outputs": [
        {
          "name": "",
          "type": "uint256"
        }
      ],
      "payable": false,
      "stateMutability": "view",
      "type": "function"
    },
    {
      "constant": true,
      "inputs": [],
      "name": "selling",
      "outputs": [
        {
          "name": "",
          "type": "bool"
        }
      ],
      "payable": false,
      "stateMutability": "view",
      "type": "function"
    },
    {
      "constant": false,
      "inputs": [],
      "name": "completeSale",
      "outputs": [],
      "payable": true,
      "stateMutability": "payable",
      "type": "function"
    },
    {
      "constant": true,
      "inputs": [],
      "name": "sellingTo",
      "outputs": [
        {
          "name": "",
          "type": "address"
        }
      ],
      "payable": false,
      "stateMutability": "view",
      "type": "function"
    },
    {
      "constant": true,
      "inputs": [],
      "name": "owner",
      "outputs": [
        {
          "name": "",
          "type": "address"
        }
      ],
      "payable": false,
      "stateMutability": "view",
      "type": "function"
    },
    {
      "constant": false,
      "inputs": [],
      "name": "cancelSale",
      "outputs": [],
      "payable": false,
      "stateMutability": "nonpayable",
      "type": "function"
    },
    {
      "inputs": [],
      "payable": false,
      "stateMutability": "nonpayable",
      "type": "constructor"
    },
    {
      "anonymous": false,
      "inputs": [
        {
          "indexed": false,
          "name": "_saleDate",
          "type": "uint256"
        },
        {
          "indexed": false,
          "name": "_from",
          "type": "address"
        },
        {
          "indexed": false,
          "name": "_to",
          "type": "address"
        },
        {
          "indexed": false,
          "name": "_salePrice",
          "type": "uint256"
        }
      ],
      "name": "Transfer",
      "type": "event"
    }
  ],
  "bytecode": "0x606060405260008060146101000a81548160ff021916908315150217905550341561002957600080fd5b336000806101000a81548173ffffffffffffffffffffffffffffffffffffffff021916908373ffffffffffffffffffffffffffffffffffffffff1602179055507ff2dbd98d79f00f7aff338b824931d607bfcc63d47307162470f25a055102d3b04260008060009054906101000a900473ffffffffffffffffffffffffffffffffffffffff166000604051808581526020018473ffffffffffffffffffffffffffffffffffffffff1673ffffffffffffffffffffffffffffffffffffffff1681526020018373ffffffffffffffffffffffffffffffffffffffff1673ffffffffffffffffffffffffffffffffffffffff16815260200182815260200194505050505060405180910390a1610771806101426000396000f300606060405260043610610083576000357c0100000000000000000000000000000000000000000000000000000000900463ffffffff16806309e949e8146100885780631a7ac726146100ca57806323aed228146100f35780634d461ed1146101205780634d8a96101461012a5780638da5cb5b1461017f578063e7e10490146101d4575b600080fd5b341561009357600080fd5b6100c8600480803590602001909190803573ffffffffffffffffffffffffffffffffffffffff169060200190919050506101e9565b005b34156100d557600080fd5b6100dd61035b565b6040518082815260200191505060405180910390f35b34156100fe57600080fd5b610106610361565b604051808215151515815260200191505060405180910390f35b610128610374565b005b341561013557600080fd5b61013d610614565b604051808273ffffffffffffffffffffffffffffffffffffffff1673ffffffffffffffffffffffffffffffffffffffff16815260200191505060405180910390f35b341561018a57600080fd5b61019261063a565b604051808273ffffffffffffffffffffffffffffffffffffffff1673ffffffffffffffffffffffffffffffffffffffff16815260200191505060405180910390f35b34156101df57600080fd5b6101e761065f565b005b6000809054906101000a900473ffffffffffffffffffffffffffffffffffffffff1673ffffffffffffffffffffffffffffffffffffffff163373ffffffffffffffffffffffffffffffffffffffff1614151561024457600080fd5b3073ffffffffffffffffffffffffffffffffffffffff168173ffffffffffffffffffffffffffffffffffffffff16141580156102cd57506000809054906101000a900473ffffffffffffffffffffffffffffffffffffffff1673ffffffffffffffffffffffffffffffffffffffff168173ffffffffffffffffffffffffffffffffffffffff1614155b15156102d857600080fd5b600060149054906101000a900460ff161515156102f457600080fd5b6001600060146101000a81548160ff02191690831515021790555080600160006101000a81548173ffffffffffffffffffffffffffffffffffffffff021916908373ffffffffffffffffffffffffffffffffffffffff160217905550816002819055505050565b60025481565b600060149054906101000a900460ff1681565b60008060008060149054906101000a900460ff16151561039357600080fd5b6000809054906101000a900473ffffffffffffffffffffffffffffffffffffffff1673ffffffffffffffffffffffffffffffffffffffff163373ffffffffffffffffffffffffffffffffffffffff16141515156103ef57600080fd5b600160009054906101000a900473ffffffffffffffffffffffffffffffffffffffff1673ffffffffffffffffffffffffffffffffffffffff163373ffffffffffffffffffffffffffffffffffffffff1614806104995750600073ffffffffffffffffffffffffffffffffffffffff16600160009054906101000a900473ffffffffffffffffffffffffffffffffffffffff1673ffffffffffffffffffffffffffffffffffffffff16145b15156104a457600080fd5b600254341415156104b457600080fd5b6000809054906101000a900473ffffffffffffffffffffffffffffffffffffffff1692503391506002549050816000806101000a81548173ffffffffffffffffffffffffffffffffffffffff021916908373ffffffffffffffffffffffffffffffffffffffff1602179055506105286106df565b8273ffffffffffffffffffffffffffffffffffffffff166108fc829081150290604051600060405180830381858888f19350505050151561056857600080fd5b7ff2dbd98d79f00f7aff338b824931d607bfcc63d47307162470f25a055102d3b042848484604051808581526020018473ffffffffffffffffffffffffffffffffffffffff1673ffffffffffffffffffffffffffffffffffffffff1681526020018373ffffffffffffffffffffffffffffffffffffffff1673ffffffffffffffffffffffffffffffffffffffff16815260200182815260200194505050505060405180910390a1505050565b600160009054906101000a900473ffffffffffffffffffffffffffffffffffffffff1681565b6000809054906101000a900473ffffffffffffffffffffffffffffffffffffffff1681565b6000809054906101000a900473ffffffffffffffffffffffffffffffffffffffff1673ffffffffffffffffffffffffffffffffffffffff163373ffffffffffffffffffffffffffffffffffffffff161415156106ba57600080fd5b600060149054906101000a900460ff1615156106d557600080fd5b6106dd6106df565b565b60008060146101000a81548160ff0219169083151502179055506000600160006101000a81548173ffffffffffffffffffffffffffffffffffffffff021916908373ffffffffffffffffffffffffffffffffffffffff16021790555060006002819055505600a165627a7a723058206f4b0478009948c69646ca8313d3b3e909814a513283f68ab5bf403368e6a2710029",
  "source": "pragma solidity ^0.4.18;\r\n/**\r\n * @dev Sellable contract should be inherited by any other contract that\r\n * wants to provide a mechanism for selling its ownership to another account\r\n */\r\ncontract Sellable {\r\n    \r\n    // The owner of the contract\r\n    address public owner;\r\n    \r\n    // Current sale status\r\n    bool public selling = false;\r\n    \r\n    // Who is the selected buyer, if any.\r\n    // Optional\r\n    address public sellingTo;\r\n    \r\n    // How much ether (wei) the seller has asked the buyer to send\r\n    uint public askingPrice;\r\n    \r\n    //\r\n    // Modifiers\r\n    // \r\n    \r\n    // Makes functions require the called to be the owner of the contract\r\n    modifier onlyOwner {\r\n        require(msg.sender == owner);\r\n        _;\r\n    }\r\n    \r\n    // Add to functions that the owner wants to prevent being called while the\r\n    // contract is for sale.\r\n    modifier ifNotLocked {\r\n        require(!selling);\r\n        _;\r\n    }\r\n    \r\n    event Transfer(uint _saleDate, address _from, address _to, uint _salePrice);\r\n    function Sellable() public{\r\n        owner = msg.sender;\r\n        Transfer(now,address(0),owner,0);\r\n    }\r\n    \r\n    /**\r\n     * @dev initiateSale is called by the owner of the contract to start\r\n     * the sale process.\r\n     * @param _price is the asking price for the sale\r\n     * @param _to (OPTIONAL) is the address of the person that the owner\r\n     * wants to sell the contract to. If set to 0x0, anyone can buy it.\r\n     */\r\n    function initiateSale(uint _price, address _to) onlyOwner public{\r\n        require(_to != address(this) && _to != owner);\r\n        require(!selling);\r\n        \r\n        selling = true;\r\n        \r\n        // Set the target buyer, if specified.\r\n        sellingTo = _to;\r\n        \r\n        askingPrice = _price;\r\n    }\r\n    \r\n    /**\r\n     * @dev cancelSale allows the owner to cancel the sale before someone buys\r\n     * the contract.\r\n     */\r\n    function cancelSale() onlyOwner public{\r\n        require(selling);\r\n        \r\n        // Reset sale variables\r\n        resetSale();\r\n    }\r\n    \r\n    /** \r\n     * @dev completeSale is called buy the specified buyer (or anyone if sellingTo)\r\n     * was not set, to make the purchase.\r\n     * Value sent must match the asking price.\r\n     */\r\n    function completeSale() public payable{\r\n        require(selling);\r\n        require(msg.sender != owner);\r\n        require(msg.sender == sellingTo || sellingTo == address(0));\r\n        require(msg.value == askingPrice);\r\n        \r\n        // Swap ownership\r\n        address prevOwner = owner;\r\n        address newOwner = msg.sender;\r\n        uint salePrice = askingPrice;\r\n        \r\n        owner = newOwner;\r\n        \r\n        // Transaction cleanup\r\n        resetSale();\r\n        \r\n        prevOwner.transfer(salePrice);\r\n        \r\n        Transfer(now,prevOwner,newOwner,salePrice);\r\n    }\r\n    \r\n    //\r\n    // Internal functions\r\n    //\r\n    \r\n    /**\r\n     * @dev resets the variables related to a sale process\r\n     */\r\n    function resetSale() internal{\r\n        selling = false;\r\n        sellingTo = address(0);\r\n        askingPrice = 0;\r\n    }\r\n}\r\n\r\n\r\n",
  "sourcePath": "G:\\toshblocks\\b\\contracts\\Sellable.sol",
  "compiler": {
    "name": "solc",
    "version": "0.4.18+commit.9cf6e910.Emscripten.clang"
  },
  "schemaVersion": "1.0.1",
  "updatedAt": "2017-12-21T11:00:08.260Z"
}